:100000000C942A000C94990D0C94CC0D0C94FF0DBB
:100010000C9447000C9466080C9447000C9447001D
:100020000C9447000C9447000C9447000C947D0CF2
:100030000C9447000C9447000C9447000C94470024
:100040000C9447000C9447000C9447000C94470014
:100050000C94470011241FBECFE5D8E0DEBFCDBF12
:1000600011E0A0E6B0E0EAE8F9E702C005900D92E1
:10007000A637B107D9F711E0A6E7B1E001C01D929C
:10008000A63BB107E1F70E942C3C0C94C33C0C94B6
:100090000000EF92FF920F93DF93CF93CDB7DEB7BF
:1000A00060970FB6F894DEBF0FBECDBFA82F002318
:1000B00009F461C07E010894E11CF11C88E0F7019D
:1000C00011928A95E9F729833A834B835C836D8388
:1000D0007E83AF83988780E2801BE82FFF27E7FDB0
:1000E000F0954D815E816F817885181684F01D86AC
:1000F0001E861F86188A882799278E1B9F0B04C08F
:1001000076956795579547958A95D2F728C0202F01
:10011000332727FD3095DB01CA01022E04C0B695B6
:10012000A795979587950A94D2F78D879E87AF8775
:10013000B88B04C0440F551F661F771FEA95D2F78E
:1001400089819A81AB81BC8104C0B695A7959795AA
:1001500087952A95D2F7482B592B6A2B7B2B4987F9
:100160005A876B877C8729853A854B855C856D85A9
:100170007E85AF8598898A2F60960FB6F894DEBF8A
:100180000FBECDBFCF91DF910F91FF90EF900895FB
:10019000EF92FF920F93DF93CF93CDB7DEB76097C7
:1001A0000FB6F894DEBF0FBECDBFA82F002309F411
:1001B00061C07E010894E11CF11C88E0F7011192F6
:1001C0008A95E9F729833A834B835C836D837E8329
:1001D000AF83988780E2801BE82FFF27E7FDF0952B
:1001E00049815A816B817C81181684F019861A86A0
:1001F0001B861C86882799278E1B9F0B04C0440FE3
:10020000551F661F771F8A95D2F728C0202F3327E6
:1002100027FD3095DB01CA01022E04C0880F991F0B
:10022000AA1FBB1F0A94D2F789879A87AB87BC871E
:1002300004C07695679557954795EA95D2F78D81D5
:100240009E81AF81B88504C0880F991FAA1FBB1F6C
:100250002A95D2F7482B592B6A2B7B2B4D875E872B
:100260006F87788B29853A854B855C856D857E8582
:10027000AF8598898A2F60960FB6F894DEBF0FBEBF
:10028000CDBFCF91DF910F91FF90EF900895EF9246
:10029000FF920F931F937B018C0120E030E040E040
:1002A0005FE40E94470488238CF0C801B70120E076
:1002B00030E040E05FE40E94BF020E94A7049B017F
:1002C000AC01205030404040504806C0C801B70142
:1002D0000E94A7049B01AC01B901CA011F910F91B3
:1002E000FF90EF900895A0E0B0E0E9E7F1E00C9412
:1002F0008C3CDC012B01FA019C91923008F439C14D
:10030000EB018881823008F433C1943069F4843081
:1003100009F02FC111969C9111978981981709F4C2
:1003200028C1A9EBB0E025C1843009F421C1823095
:10033000A9F4923009F01DC19A01AD0188E0EA01EB
:100340000990AE01E90109929E018150C1F7E201D5
:10035000898111969C918923818308C1923009F487
:1003600007C112962D903C901397EB018A819B81D7
:100370001496AD90BD90CD90DC901797EC80FD80E9
:100380000E811F819101281B390BB90137FF04C071
:1003900066277727621B730B603271050CF061C012
:1003A000121613066CF537014801062E04C0969408
:1003B0008794779467940A94D2F721E030E040E084
:1003C00050E004C0220F331F441F551F6A95D2F717
:1003D00021503040404050402E213F2140235123A6
:1003E000211531054105510521F021E030E040E0C3
:1003F00050E079018A01E628F728082919293CC02C
:10040000232BD1F1260E371E35014601062E04C0DE
:1004100096948794779467940A94D2F721E030E019
:1004200040E050E004C0220F331F441F551F6A955F
:10043000D2F721503040404050402A213B214C21EE
:100440005D21211531054105510521F021E030E004
:1004500040E050E059016A01A628B728C828D928E9
:100460000BC0821593052CF01C01AA24BB24650146
:1004700003C0EE24FF24870111969C91D2011196AE
:100480008C91981709F445C0992339F0A801970178
:100490002A193B094C095D0906C0A60195012E19D0
:1004A0003F09400B510B57FD08C011823382228255
:1004B00024833583468357831DC081E08183338243
:1004C000228288279927DC01821B930BA40BB50B92
:1004D00084839583A683B7830DC0220F331F441FE7
:1004E000551F2483358346835783828193810197E7
:1004F000938382832481358146815781DA01C90142
:100500000197A109B1098F5F9F4FAF4FBF4328F3F8
:100510000BC0918333822282EA0CFB1C0C1D1D1D33
:10052000E482F5820683178383E08083248135810A
:100530004681578157FF1AC0C901AA2797FDA09588
:10054000BA2F81709070A070B0705695479537950E
:100550002795822B932BA42BB52B84839583A6837D
:10056000B78382819381019693838283DF0101C0E7
:10057000D201CD01CDB7DEB7E2E10C94A83CA0E2F8
:10058000B0E0E5ECF2E00C94983C69837A838B83CD
:100590009C832D833E834F835887E9E0EE2EF12C18
:1005A000EC0EFD1ECE010196B7010E94D0058E0112
:1005B0000F5E1F4FCE010596B8010E94D0058A89B3
:1005C00091E089278A8BC701B801AE01475E5F4F72
:1005D0000E9473010E94FB04A096E6E00C94B43CD8
:1005E000A0E2B0E0E6EFF2E00C94983C69837A83F5
:1005F0008B839C832D833E834F835887F9E0EF2EB6
:10060000F12CEC0EFD1ECE010196B7010E94D00523
:100610008E010F5E1F4FCE010596B8010E94D005D6
:10062000C701B801AE01475E5F4F0E9473010E948F
:10063000FB04A096E6E00C94B43CA0E2B0E0E3E258
:10064000F3E00C948C3C69837A838B839C832D83A9
:100650003E834F835887CE010196BE01675F7F4F6F
:100660000E94D005CE010596BE016F5E7F4F0E94AD
:10067000D0059985923088F089898230C8F094300D
:1006800019F4823051F404C0843029F4923081F49A
:1006900089EB90E0C6C0923049F420E09A858A89BF
:1006A000981321E02A87CE010996BBC0823049F415
:1006B00020E09A858A89981321E02A8BCE01419601
:1006C000B0C02D843E844F8458886D887E888F8882
:1006D000988CEE24FF248701AA24BB24650140E006
:1006E00050E060E070E0E0E0F0E0C1018170907007
:1006F000892BE9F0E60CF71C081D191D9A01AB01C6
:100700002A0D3B1D4C1D5D1D80E090E0A0E0B0E097
:10071000E614F7040805190520F481E090E0A0E054
:10072000B0E0BA01A901480F591F6A1F7B1FAA0C2C
:10073000BB1CCC1CDD1C97FE08C081E090E0A0E053
:10074000B0E0A82AB92ACA2ADB2A3196E032F1059C
:1007500049F0660C771C881C991C56944794379472
:100760002794C3CFFA85EA892B893C898B859C85A0
:10077000280F391F2E5F3F4F17C0CA01817090703C
:10078000892B61F016950795F794E79480E090E047
:10079000A0E0B0E8E82AF92A0A2B1B2B769567958A
:1007A000579547952F5F3F4F77FDE7CF0CC0440F1C
:1007B000551F661F771F17FD4160EE0CFF1C001FC1
:1007C000111F21503040403090E0590790E06907F8
:1007D00090E4790760F32B8F3C8FDB01CA018F77A0
:1007E0009070A070B07080349105A105B10561F4DE
:1007F00047FD0AC0E114F1040105110529F0405C30
:100800005F4F6F4F7F4F40781A8EFE1711F081E0D7
:100810008A8F4D8F5E8F6F8F78A383E0898FCE0193
:1008200049960E94FB04A096E2E10C94A83CA8E142
:10083000B0E0EDE1F4E00C94983C69837A838B831B
:100840009C832D833E834F83588789E0E82EF12CCB
:10085000EC0EFD1ECE010196B7010E94D0058E015F
:100860000F5E1F4FCE010596B8010E94D005898505
:10087000823040F08989823028F0C701B8010E9497
:10088000480601C08FEF6896E6E00C94B43CA8E1FE
:10089000B0E0EDE4F4E00C94983C69837A838B83B8
:1008A0009C832D833E834F83588789E0E82EF12C6B
:1008B000EC0EFD1ECE010196B7010E94D0058E01FF
:1008C0000F5E1F4FCE010596B8010E94D0058985A5
:1008D000823040F08989823028F0C701B8010E9437
:1008E000480601C08FEF6896E6E00C94B43CA8E19E
:1008F000B0E0EDE7F4E00C94983C69837A838B8355
:100900009C832D833E834F83588789E0E82EF12C0A
:10091000EC0EFD1ECE010196B7010E94D0058E019E
:100920000F5E1F4FCE010596B8010E94D005898544
:10093000823040F08989823028F0C701B8010E94D6
:10094000480601C081E06896E6E00C94B43CACE057
:10095000B0E0EDEAF4E00C949C3C69837A838B83ED
:100960009C83CE010196BE016B5F7F4F0E94D00534
:100970008D81823061F1823050F1843021F48E819A
:10098000882351F12EC02F81388537FD20C06E811C
:100990002F3131051CF06623F9F023C08EE190E081
:1009A000821B930B29853A854B855C8504C056953F
:1009B0004795379527958A95D2F76623B1F05095DC
:1009C0004095309521953F4F4F4F5F4F0EC020E02F
:1009D00030E040E050E009C02FEF3FEF4FEF5FE71E
:1009E00004C020E030E040E050E8B901CA012C9694
:1009F000E2E00C94B83CDF92EF92FF920F931F93CA
:100A0000FC01E480F58006811781D18080818230ED
:100A100048F480E090E0A0E1B0E0E82AF92A0A2B4F
:100A20001B2BA5C0843009F49FC0823021F4EE2432
:100A3000FF24870105C0E114F1040105110519F433
:100A4000E0E0F0E096C0628173819FEF6238790741
:100A50000CF05BC022E83FEF261B370B2A31310533
:100A60002CF020E030E040E050E02AC0B801A701BF
:100A7000022E04C076956795579547950A94D2F74C
:100A800081E090E0A0E0B0E004C0880F991FAA1FA9
:100A9000BB1F2A95D2F70197A109B1098E219F2189
:100AA000A023B1230097A105B10521F081E090E0DA
:100AB000A0E0B0E09A01AB01282B392B4A2B5B2B2D
:100AC000DA01C9018F779070A070B0708034910501
:100AD000A105B10539F427FF09C0205C3F4F4F4FF6
:100AE0005F4F04C0215C3F4F4F4F5F4FE0E0F0E0AD
:100AF0002030A0E03A07A0E04A07A0E45A0710F02F
:100B0000E1E0F0E079018A0127C06038710564F501
:100B1000FB01E158FF4FD801C7018F779070A0709B
:100B2000B07080349105A105B10539F4E7FE0DC020
:100B300080E490E0A0E0B0E004C08FE390E0A0E0AB
:100B4000B0E0E80EF91E0A1F1B1F17FF05C016951F
:100B50000795F794E794319687E016950795F794F3
:100B6000E7948A95D1F705C0EE24FF248701EFEFC3
:100B7000F0E06E2F679566276795902F9F77D79443
:100B8000DD24D7948E2F8695492F462B582F5D292B
:100B9000B701CA011F910F91FF90EF90DF90089568
:100BA000FC01DB01408151812281622F6F7770E06F
:100BB000221F2227221F9381892F880F822B282F03
:100BC00030E0991F9927991F11969C931197211531
:100BD0003105A9F5411551056105710511F482E052
:100BE00037C082E89FEF13969C938E9312979A01D9
:100BF000AB0167E0220F331F441F551F6A95D1F7E1
:100C000083E08C930DC0220F331F441F551F129693
:100C10008D919C911397019713969C938E931297A5
:100C2000203080E0380780E0480780E4580758F318
:100C300014962D933D934D935C93179708952F3FF2
:100C4000310579F4411551056105710519F484E008
:100C50008C93089564FF03C081E08C9312C01C92B2
:100C600010C02F57304013963C932E93129783E079
:100C70008C9387E0440F551F661F771F8A95D1F725
:100C8000706414964D935D936D937C9317970895BC
:100C90001F93DC01FB019C91923008F447C08081D6
:100CA000823008F443C0943051F411961C91843082
:100CB00099F58181682F70E0611B71093FC0843014
:100CC00021F0923031F48230B9F18181882389F1A9
:100CD0002DC011961C9111978230F1F08181181767
:100CE000D9F412962D913C911397828193818217AA
:100CF000930794F028173907BCF014968D919D91B5
:100D00000D90BC91A02D24813581468157812817F3
:100D100039074A075B0718F4112341F00AC082170C
:100D20009307A407B50740F4112319F061E070E0C0
:100D300005C06FEF7FEF02C060E070E0CB011F9154
:100D40000895DF93CF9300D000D0CDB7DEB7E5E4B0
:100D5000F0E087E080838EE490E0A0E0B0E089835B
:100D60009A83AB83BC8389819A81AB81BC8181509A
:100D70009F4FAF4FBF4F892F9A2FAB2FBB27909319
:100D8000770180937601809176019091770190931D
:100D90007901809378018981819580937A01E4E4D7
:100DA000F0E080917A018083A9E5B0E0E9E5F0E028
:100DB000808180648C930F900F900F900F90CF9153
:100DC000DF910895DF93CF93CDB7DEB727970FB6A6
:100DD000F894DEBF0FBECDBF9A8389837C836B837B
:100DE0005E834D832F838F81843008F049C08F81CB
:100DF000282F30E0C901880F991F880F991F880F8D
:100E0000991F821B930BFC01E158FE4F89819A8147
:100E1000918380838F81282F30E0C901880F991F2B
:100E2000880F991F880F991F821B930BFC01EF57A6
:100E3000FE4F8B819C81918380838F81282F30E0AE
:100E4000C901880F991F880F991F880F991F821B4E
:100E5000930BFC01ED57FE4F8D819E819183808322
:100E60008F81282F30E0C901880F991F880F991FA3
:100E7000880F991F821B930BFC01EB57FE4F1082CA
:100E800027960FB6F894DEBF0FBECDBFCF91DF918E
:100E90000895EF92FF920F931F93DF93CF9300D0AB
:100EA00000D00F92CDB7DEB71A821B821C821D8242
:100EB000789420917B0130917C0140917D0150918B
:100EC0007E018A819B81AC81BD8182179307A40733
:100ED000B50778F780917B0190917C01A0917D010D
:100EE000B0917E018A839B83AC83BD8383E0898339
:100EF0007EC08981282F332727FD3095C901880FAF
:100F0000991F880F991F880F991F821B930BFC0153
:100F1000E158FE4F80819181009709F465C0898175
:100F2000282F332727FD3095C901880F991F880F77
:100F3000991F880F991F821B930BFC01EB57FE4FE3
:100F40008081882309F050C0E0907B01F0907C0103
:100F500000917D0110917E018981282F332727FD83
:100F60003095C901880F991F880F991F880F991F05
:100F7000821B930BFC01ED57FE4F808191819C01F8
:100F800040E050E0C801B7010E946A3CDC01CB019F
:100F90000097A105B10541F58981282F332727FD49
:100FA0003095C901880F991F880F991F880F991FC5
:100FB000821B930BFC01E158FE4F408151818981D6
:100FC000282F332727FD3095C901880F991F880FD7
:100FD000991F880F991F821B930BFC01EF57FE4F3F
:100FE00080819181FA010995898181508983898164
:100FF00088230CF07ECF5DCFDF93CF930F92CDB7D8
:10100000DEB789838981843010F58981282F30E00B
:10101000C901880F991F880F991F880F991F821B7C
:10102000930BFC01EB57FE4F82E080838981282FD0
:1010300030E0C901880F991F880F991F880F991FE9
:10104000821B930BFC01E158FE4F118210820F901E
:10105000CF91DF910895DF93CF930F92CDB7DEB795
:1010600089838981843080F48981282F30E0C90107
:10107000880F991F880F991F880F991F821B930B48
:10108000FC01EB57FE4F10820F90CF91DF91089536
:10109000DF93CF930F92CDB7DEB7898389818430F8
:1010A00088F48981282F30E0C901880F991F880FA3
:1010B000991F880F991F821B930BFC01EB57FE4F62
:1010C00081E080830F90CF91DF9108951F920F925E
:1010D0000FB60F9211248F939F93AF93BF93EF930B
:1010E000FF93DF93CF93CDB7DEB7809178019091D6
:1010F000790101979093790180937801809178012B
:1011000090917901009701F5E4E4F0E080917A0193
:10111000808380917B0190917C01A0917D01B091B1
:101120007E010196A11DB11D80937B0190937C01EE
:10113000A0937D01B0937E0180917601909177011B
:101140009093790180937801CF91DF91FF91EF9196
:10115000BF91AF919F918F910F900FBE0F901F90F5
:101160001895DF93CF93CDB7DEB7A3E5B0E0E3E505
:10117000F0E08081887F8C93A3E5B0E0E3E5F0E0C8
:10118000808182608C93A3E5B0E0E3E5F0E08081AC
:10119000877B8C93A9E5B0E0E9E5F0E08081816090
:1011A0008C93CF91DF9108952F923F924F925F924F
:1011B0006F927F928F929F92AF92BF92CF92DF9267
:1011C000EF92FF920F931F93DF93CF93CDB7DEB7CC
:1011D000C855D0400FB6F894DEBF0FBECDBF6D83AB
:1011E0007E838F8398875A87498789859A85009758
:1011F00009F4FDC28D819E81AF81B8858C019D016E
:1012000040E050E060E070E00B871C872D873E8750
:101210004F87588B698B7A8BAB84BC84CD84DE84FA
:10122000EF84F88809891A892A2D3B2D4C2D5D2DD4
:101230006E2D7F2D802F912F02E00E94C8002B8BF6
:101240003C8B4D8B5E8B6F8B788F898F9A8F2B8920
:101250003C894D895E896F89788D898D9A8D05E0ED
:101260000E94C8002B8F3C8F4D8F5E8F6F8F78A3AD
:1012700089A39AA31B8D2B89121B1BA331E03BA7CB
:101280004BA15B8D541708F01BA66C8D7C89671BE6
:101290006CA381E08CA79CA10C8D091708F01CA6FB
:1012A0001CA12BA5121B1DA731E03EA74DA55CA1DB
:1012B000541708F01EA66CA57EA5672B6CA78DA5FC
:1012C0008CA39D8D0D89901B9DA311E01FA72DA1BF
:1012D0003D8D321708F01FA64DA15CA5451B48ABFC
:1012E00061E069AB78A98DA1871708F019AA9FA5BD
:1012F00009A9902B9FA718A91DA32E8D3E89231BFA
:101300002EA341E04AAB5EA16E8D651708F01AAAC4
:101310007EA18FA5781B7BAB91E09CAB0BA91EA196
:10132000101708F01CAA2AA93CA9232B2AAB4BA909
:101330004EA35F8D6F89561B5FA371E07DAB8FA1BC
:101340009F8D981708F01DAA0FA11AA9011B0EABBB
:1013500021E02FAB3EA94FA1431708F01FAA5DA9BA
:101360006FA9562B5DAB7EA97FA388A1988D891BA1
:1013700088A701E008AF18A528A1211708F018AE2A
:1013800038A54DA9341B39AF51E05AAF69AD78A5E6
:10139000761708F01AAE88AD9AAD892B88AF09ADE3
:1013A00008A719A1298D121B19A731E03BAF49A548
:1013B00059A1541708F01BAE69A578AD671B6CAF37
:1013C00081E08DAF9CAD09A5091708F01DAE1BADDE
:1013D0002DAD122B1BAF3CAD39A74AA15A8D451B31
:1013E0004AA78AA56BAD861B8AA77BA17B8F8CA1A0
:1013F0008C8F9DA19D8F0EA10E8F1FA11F8F28A5E1
:1014000028A339A539A34AA54AA35B8D6B85560F3E
:101410005EAF71E027967FAF27978EAD9B8D8917C2
:1014200018F027961FAE27970C8D1C85010F0FAF64
:1014300021E028962FAF28973FAD4C8D341718F038
:1014400028961FAE289727965FAD27976FAD560F4A
:1014500029965FAF299771E02A967FAF2A97299640
:101460008FAD29979FAD891718F02A961FAE2A973E
:1014700028960FAD28972A961FAD2A97012B2896FC
:101480000FAF289729962FAD29972FAF3D8D4D850A
:10149000340F21963FAF219751E02B965FAF2B97EA
:1014A00021966FAD21977D8D671718F02B961FAE93
:1014B0002B9728968FAD289721969FAD2197890F5E
:1014C0002C968FAF2C9701E02D960FAF2D972C9671
:1014D0001FAD2C9721962FAD2197121718F02D963E
:1014E0001FAE2D972B963FAD2B972D964FAD2D9779
:1014F000342B2B963FAF2B972C965FAD2C972196D4
:101500005FAF21976E8D7E85670F22966FAF229712
:1015100081E02E968FAF2E9722969FAD22970E8D4B
:10152000901718F02E961FAE2E972B961FAD2B9767
:1015300022962FAD2297120F2F961FAF2F9731E0D3
:1015400060963FAF60972F964FAD2F9722965FAD75
:101550002297451718F060961FAE60972E966FADD4
:101560002E9760967FAD6097672B2E966FAF2E9764
:101570002F968FAD2F9722968FAF22979F8D0F8535
:10158000900F23969FAF239711E061961FAF61974D
:1015900023962FAD23973F8D231718F061961FAE2A
:1015A00061972E964FAD2E9723965FAD2397450FEB
:1015B00062964FAF629761E063966FAF63976296F2
:1015C0007FAD629723968FAD2397781718F06396B7
:1015D0001FAE639761969FAD619763960FAD63975A
:1015E000902B61969FAF619762961FAD629723968D
:1015F0001FAF239728A13889230F24962FAF249754
:1016000041E064964FAF649724965FAD249768A13C
:10161000561718F064961FAE649761967FAD619778
:1016200024968FAD2497780F65967FAF659791E0EC
:1016300066969FAF669765960FAD659724961FAD2A
:101640002497011718F066961FAE669764962FAD23
:10165000649766963FAD6697232B64962FAF649789
:1016600065964FAD659724964FAF249759A1698928
:10167000560F25965FAF259771E067967FAF679706
:1016800025968FAD259799A1891718F067961FAEFB
:10169000679764960FAD649725961FAD2597010F48
:1016A00068960FAF689721E069962FAF69976896A3
:1016B0003FAD689725964FAD2597341718F069967A
:1016C0001FAE699767965FAD679769966FAD69972B
:1016D000562B67965FAF679768967FAD689725969C
:1016E0007FAF25978AA19A89890F26968FAF269773
:1016F00067968FAD679726960FAD2697800F269633
:101700008FAF26971EAD1B8F2FAD2C8F21963FAD2F
:1017100021973D8F22964FAD22974E8F23965FAD36
:1017200023975F8F24966FAD249768A325967FAD8E
:10173000259779A326968FAD26978AA32B8D3C8D6E
:101740004D8D5E8D6F8D78A189A19AA107E00E94D1
:10175000C800222E332E442E552E662E772E882E2C
:10176000992EA22CB32CC42CD52CE62CF72C082DAA
:10177000192D2A2D3B2D4C2D5D2D6E2D7F2D802F6B
:10178000912F03E00E944900A22EB32EC42ED52E25
:10179000E62EF72E082F192F2A2D3B2D4C2D5D2DCF
:1017A0006E2D7F2D802F912F29833A834B835C836D
:1017B00089819A81AB81BC8181509F4FAF4FBF4FD0
:1017C000892F9A2FAB2FBB279093A00180939F0165
:1017D000898181958093A101E2E5F0E08091A101EA
:1017E000808389859A8590939C0180939B01C85A38
:1017F000DF4F0FB6F894DEBF0FBECDBFCF91DF91A4
:101800001F910F91FF90EF90DF90CF90BF90AF901E
:101810009F908F907F906F905F904F903F902F9010
:101820000895DF93CF9300D000D0CDB7DEB76983A2
:101830007A838B839C830F900F900F900F90CF91A2
:10184000DF910895DF93CF930F92CDB7DEB78983F1
:1018500089818093A401ECE5F0E0898180830F9079
:10186000CF91DF910895DF93CF9300D0CDB7DEB74E
:101870009A83898389819A81009731F089819A813D
:1018800090939E0180939D010F900F90CF91DF91D7
:101890000895DF93CF930F92CDB7DEB78983E2E54A
:1018A000F0E0898180830F90CF91DF910895DF93DD
:1018B000CF93CDB7DEB7E2E5F0E08081CF91DF9145
:1018C0000895DF93CF93CDB7DEB7A9E5B0E0E9E5A2
:1018D000F0E0808181608C93CF91DF910895DF9358
:1018E000CF93CDB7DEB7A9E5B0E0E9E5F0E08081C0
:1018F0008E7F8C93CF91DF9108951F920F920FB638
:101900000F9211242F933F934F935F936F937F9385
:101910008F939F93AF93BF93EF93FF93DF93CF93F7
:10192000CDB7DEB780919D0190919E01009731F077
:10193000E0919D01F0919E01099528C08091A2013E
:101940009091A30101969093A3018093A20120910D
:10195000A2013091A30180919F019091A0012817CD
:101960003907A1F4E2E5F0E08091A10180831092B3
:10197000A3011092A20180919B0190919C0100977C
:1019800029F0E0919B01F0919C010995CF91DF91A5
:10199000FF91EF91BF91AF919F918F917F916F9147
:1019A0005F914F913F912F910F900FBE0F901F901D
:1019B0001895DF93CF93CDB7DEB77894CF91DF91B1
:1019C0000895DF93CF93CDB7DEB7F894CF91DF9131
:1019D0000895DF93CF9300D0CDB7DEB781E08A833F
:1019E000198219823BC08981282F30E0C901880FF4
:1019F000991F820F931FFC01EE53FF4F4081898195
:101A0000282F30E0C901880F991F820F931FFC0116
:101A1000EC53FF4F9081842F692F0E94320E8981F1
:101A2000282F30E0C901880F991F820F931FFC01F6
:101A3000EE53FF4F40818981282F30E0C901880F84
:101A4000991F820F931FFC01ED53FF4F9081842F4C
:101A5000692F0E948E0E89818F5F89839091C100CA
:101A60008981891708F4BFCF8A810F900F90CF9199
:101A7000DF910895DF93CF9300D00F92CDB7DEB7FB
:101A80008A836B8381E089838A816B810E948E0EB9
:101A900089810F900F900F90CF91DF910895DF9380
:101AA000CF9300D0CDB7DEB78A8381E089838A8166
:101AB0006AE40E94320E89810F900F90CF91DF91DE
:101AC0000895DF93CF9300D0CDB7DEB78A8381E04E
:101AD00089838A8165E40E94320E89810F900F907C
:101AE000CF91DF910895DF93CF9300D000D0CDB791
:101AF000DEB78A837C836B8381E089838B819C81C1
:101B0000009769F08A81882F90E0880F991FFC0167
:101B1000EB55FE4F8B819C819183808302C083E0D3
:101B2000898389810F900F900F900F90CF91DF9153
:101B300008951F920F920FB60F9211242F933F9387
:101B40004F935F936F937F938F939F93AF93BF93C5
:101B5000EF93FF93DF93CF93CDB7DEB78091A501CD
:101B60009091A601009729F0E091A501F091A601BE
:101B70000995CF91DF91FF91EF91BF91AF919F9127
:101B80008F917F916F915F914F913F912F910F9026
:101B90000FBE0F901F9018951F920F920FB60F92C5
:101BA00011242F933F934F935F936F937F938F9362
:101BB0009F93AF93BF93EF93FF93DF93CF93CDB7F3
:101BC000DEB78091A7019091A801009729F0E091DC
:101BD000A701F091A8010995CF91DF91FF91EF91B5
:101BE000BF91AF919F918F917F916F915F914F9135
:101BF0003F912F910F900FBE0F901F9018951F923D
:101C00000F920FB60F9211242F933F934F935F9330
:101C10006F937F938F939F93AF93BF93EF93FF93B4
:101C2000DF93CF93CDB7DEB78091A9019091AA0140
:101C3000009729F0E091A901F091AA010995CF91AF
:101C4000DF91FF91EF91BF91AF919F918F917F9124
:101C50006F915F914F913F912F910F900FBE0F9019
:101C60001F901895DF93CF9300D000D00F92CDB77F
:101C7000DEB789836A838981282F30E03C832B83F8
:101C80008B819C8181309105E1F02B813C81223058
:101C9000310551F18B819C810097C1F58A818A348D
:101CA00041F4ABE5B0E0EBE5F0E0808180648C933B
:101CB0002DC0ABE5B0E0EBE5F0E080818F7B8C934D
:101CC00025C08A818A3441F4ABE5B0E0EBE5F0E071
:101CD000808180688C931AC0ABE5B0E0EBE5F0E062
:101CE00080818F778C9312C08A818A3441F4ABE56E
:101CF000B0E0EBE5F0E0808180628C9307C0ABE55B
:101D0000B0E0EBE5F0E080818F7B8C930F900F903B
:101D10000F900F900F90CF91DF910895DF93CF93A5
:101D200000D000D00F92CDB7DEB789836A83898156
:101D3000282F30E03C832B838B819C81813091055F
:101D400009F446C02B813C812230310509F47AC068
:101D50008B819C81009709F08AC08A81813441F48B
:101D6000A5E5B0E0E5E5F0E080818C7F8C937FC055
:101D70008A81803279F4A5E5B0E0E5E5F0E0808184
:101D80008C7F8C93A5E5B0E0E5E5F0E08081816093
:101D90008C936DC08A818C3079F4A5E5B0E0E5E5DF
:101DA000F0E080818C7F8C93A5E5B0E0E5E5F0E084
:101DB000808182608C935BC08A818A3509F057C02C
:101DC000A5E5B0E0E5E5F0E0808183608C934FC04D
:101DD0008A81813441F4A5E5B0E0E5E5F0E0808159
:101DE000837F8C9344C08A81803279F4A5E5B0E08A
:101DF000E5E5F0E08081837F8C93A5E5B0E0E5E543
:101E0000F0E0808184608C9332C08A818C3079F4D8
:101E1000A5E5B0E0E5E5F0E08081837F8C93A5E562
:101E2000B0E0E5E5F0E0808188608C9320C08A8195
:101E30008A35E9F4A5E5B0E0E5E5F0E080818C6065
:101E40008C9315C08A818C3041F4A4E5B0E0E4E5C0
:101E5000F0E080818F7B8C930AC08A818A3539F4C7
:101E6000A4E5B0E0E4E5F0E0808180648C930F901D
:101E70000F900F900F900F90CF91DF910895DF9307
:101E8000CF930F92CDB7DEB781E0898389810F9020
:101E9000CF91DF910895DF93CF9300D000D000D091
:101EA000CDB7DEB78A836B834C8381E089838A81D7
:101EB000843008F0D0C08B81883008F0CCC08C8191
:101EC000823008F0C8C08A81282F30E03E832D83FD
:101ED0006D817E816130710509F441C08D819E81E3
:101EE0008230910534F42D813E812115310571F048
:101EF000B0C06D817E816230710509F459C08D8159
:101F00009E818330910509F47CC0A3C0AAE3B0E0B0
:101F1000EAE3F0E08081482F8B81282F30E081E0D8
:101F200090E002C0880F991F2A95E2F780958423DC
:101F30008C93AAE3B0E0EAE3F0E08081482F8C8143
:101F4000282F30E08B81882F90E0B90102C0660F06
:101F5000771F8A95E2F7CB01842B8C937AC0A7E395
:101F6000B0E0E7E3F0E08081482F8B81282F30E05C
:101F700081E090E002C0880F991F2A95E2F78095D2
:101F800084238C93A7E3B0E0E7E3F0E08081482F5F
:101F90008C81282F30E08B81882F90E0B90102C01E
:101FA000660F771F8A95E2F7CB01842B8C9351C083
:101FB000A4E3B0E0E4E3F0E08081482F8B81282F98
:101FC00030E081E090E002C0880F991F2A95E2F787
:101FD000809584238C93A4E3B0E0E4E3F0E0808177
:101FE000482F8C81282F30E08B81882F90E0B90119
:101FF00002C0660F771F8A95E2F7CB01842B8C9382
:1020000028C0A1E3B0E0E1E3F0E08081482F8B81BC
:10201000282F30E081E090E002C0880F991F2A95B8
:10202000E2F7809584238C93A1E3B0E0E1E3F0E054
:102030008081482F8C81282F30E08B81882F90E081
:10204000B90102C0660F771F8A95E2F7CB01842B96
:102050008C93198202C082E08983898126960FB60B
:10206000F894DEBF0FBECDBFCF91DF910895DF930F
:10207000CF93CDB7DEB729970FB6F894DEBF0FBE6A
:10208000CDBF8A836B834C8381E089838A818430CE
:1020900008F0DFC08B81883008F0DBC08C81823093
:1020A00008F0D7C08A81282F30E0398728878885B3
:1020B00099858130910509F444C0E885F985E230BD
:1020C000F10534F4288539852115310571F0BFC03B
:1020D000888599858230910509F462C0E885F98583
:1020E000E330F10509F488C0B2C08C818130A1F4DD
:1020F000ABE3B0E0EBE3F0E08081482F8B81282F49
:1021000030E081E090E0022E02C0880F991F0A940F
:10211000E2F7842B8C939BC0ABE3B0E0EBE3F0E001
:102120008081482F8B81282F30E081E090E0022EC3
:1021300002C0880F991F0A94E2F7809584238C933C
:1021400086C028E330E03F832E838C81813091F478
:10215000E8E3F0E08081482F8B81282F30E081E098
:1021600090E0022E02C0880F991F0A94E2F7842B98
:102170008D8311C0E8E3F0E08081482F8B81282F08
:1021800030E081E090E002C0880F991F2A95E2F7C5
:10219000809584238D832D81EE81FF81208357C01C
:1021A0008C818130A1F4A5E3B0E0E5E3F0E080812B
:1021B000482F8B81282F30E081E090E0022E02C072
:1021C000880F991F0A94E2F7842B8C9340C0A5E3F3
:1021D000B0E0E5E3F0E08081482F8B81282F30E0EC
:1021E00081E090E0022E02C0880F991F0A94E2F766
:1021F000809584238C932BC08C818130A1F4A2E341
:10220000B0E0E2E3F0E08081482F8B81282F30E0BE
:1022100081E090E0022E02C0880F991F0A94E2F735
:10222000842B8C9314C0A2E3B0E0E2E3F0E0808161
:10223000482F8B81282F30E081E090E0022E02C0F1
:10224000880F991F0A94E2F7809584238C93198252
:1022500002C082E08983898129960FB6F894DEBF97
:102260000FBECDBFCF91DF910895DF93CF9300D004
:1022700000D00F92CDB7DEB78A836B8381E089836C
:102280008A81843008F074C08B81883008F070C077
:102290008A81282F30E03D832C838C819D81813081
:1022A000910549F12C813D81223031052CF48C813E
:1022B0009D81009761F05AC02C813D81223031050B
:1022C00071F18C819D8183309105E9F14FC0ABE3C1
:1022D000B0E0EBE3F0E08081482F8B81282F30E0E5
:1022E00081E090E0022E02C0880F991F0A94E2F765
:1022F00084278C933BC0A8E3B0E0E8E3F0E0808162
:10230000482F8B81282F30E081E090E0022E02C020
:10231000880F991F0A94E2F784278C9327C0A5E3BE
:10232000B0E0E5E3F0E08081482F8B81282F30E09A
:1023300081E090E0022E02C0880F991F0A94E2F714
:1023400084278C9313C0A2E3B0E0E2E3F0E0808145
:10235000482F8B81282F30E081E090E0022E02C0D0
:10236000880F991F0A94E2F784278C93198202C080
:1023700082E0898389810F900F900F900F900F90CA
:10238000CF91DF910895DF93CF93CDB7DEB7279735
:102390000FB6F894DEBF0FBECDBF8A836B835D831B
:1023A0004C8381E089838C819D81009709F47DC0F5
:1023B0008A81843008F076C08B81883008F072C042
:1023C0008A81282F30E03F832E834E815F81413008
:1023D000510559F18E819F818230910534F42E810F
:1023E0003F812115310569F05BC04E815F8142302C
:1023F000510579F18E819F818330910509F43DC0AB
:102400004FC0E9E3F0E08081282F30E08B81882FF6
:1024100090E0A90102C0559547958A95E2F7CA0157
:102420008170EC81FD8180833BC0E6E3F0E0808138
:10243000282F30E08B81882F90E0A90102C05595AC
:1024400047958A95E2F7CA018170EC81FD8180830E
:1024500027C0E3E3F0E08081282F30E08B81882FD4
:1024600090E0A90102C0559547958A95E2F7CA0107
:102470008170EC81FD81808313C0E0E3F0E0808116
:10248000282F30E08B81882F90E0A90102C055955C
:1024900047958A95E2F7CA018170EC81FD818083BE
:1024A000198205C082E0898302C083E08983898123
:1024B00027960FB6F894DEBF0FBECDBFCF91DF9148
:1024C0000895DF93CF93CDB7DEB76D970FB6F8942D
:1024D000DEBF0FBECDBF81E08D8F80E090E0ACE02D
:1024E000B2E4898F9A8FAB8FBC8F698D7A8D8B8D7B
:1024F0009C8D20E030E04AE755E40E941D03DC019A
:10250000CB018D8B9E8BAF8BB88F6D897E898F8928
:10251000988D20E030E040E85FE30E947704882354
:102520002CF481E090E09C8B8B8B3FC06D897E8981
:102530008F89988D20E03FEF4FE757E40E94170402
:1025400018164CF5698D7A8D8B8D9C8D20E030E0CE
:1025500040E251E40E941D03DC01CB01BC01CD012E
:102560000E944701DC01CB019C8B8B8B0FC080E963
:1025700091E09A8B898B89899A890197F1F79A8BD7
:10258000898B8B899C8901979C8B8B8B8B899C89F0
:10259000009769F714C06D897E898F89988D0E9494
:1025A0004701DC01CB019C8B8B8B8B899C89988BA1
:1025B0008F878F8598890197F1F7988B8F8781E0B6
:1025C00061E041E00E944B0F81E062E041E00E9447
:1025D0004B0F81E063E041E00E944B0F80E067E039
:1025E00041E00E944B0F80E066E041E00E944B0F0B
:1025F00080E065E041E00E944B0F80E064E041E054
:102600000E944B0F80E067E040E00E94371080E0BE
:1026100066E040E00E94371080E065E041E00E9403
:10262000371080E064E040E00E94371081E063E012
:1026300041E00E94371080E090E0A0E8BFE38B8784
:102640009C87AD87BE876B857C858D859E8520E0C8
:1026500030E04AE755E40E941D03DC01CB018F8383
:102660009887A987BA876F81788589859A8520E0C0
:1026700030E040E85FE30E94770488232CF481E097
:1026800090E09E838D833FC06F81788589859A8590
:1026900020E03FEF4FE757E40E94170418164CF56F
:1026A0006B857C858D859E8520E030E040E251E49D
:1026B0000E941D03DC01CB01BC01CD010E9447013A
:1026C000DC01CB019E838D830FC080E991E09C8368
:1026D0008B838B819C810197F1F79C838B838D8108
:1026E0009E8101979E838D838D819E81009769F7DE
:1026F00014C06F81788589859A850E944701DC0125
:10270000CB019E838D838D819E819A83898389816C
:102710009A810197F1F79A83898381E063E040E031
:102720000E94371081E061E040E00E94371088E2AB
:102730000E94431481E061E040E00E9437108FE086
:102740000E94431481E061E040E00E94371081E084
:102750000E94431481E061E040E00E94371086E06F
:102760000E9443148D8D6D960FB6F894DEBF0FBE98
:10277000CDBFCF91DF910895DF93CF9300D0CDB738
:10278000DEB78A8381E0898381E061E040E00E94D6
:1027900037108A810E94431489810F900F90CF9146
:1027A000DF910895DF93CF9300D0CDB7DEB78A8352
:1027B00081E0898381E061E041E00E9437108A81F5
:1027C0000E94431489810F900F90CF91DF9108955B
:1027D000DF93CF9300D0CDB7DEB79A83898310C043
:1027E00081E061E041E00E943710E981FA812081B7
:1027F00089819A8101969A838983822F0E9443144A
:10280000E981FA818081882359F780E00F900F9049
:10281000CF91DF910895DF93CF9300D00F92CDB782
:10282000DEB78A836B8381E089838A81882311F1F3
:102830008A818330F8F48B818823E1F08B818131A8
:10284000C8F481E061E040E00E9437108A81882F5F
:1028500090E0019600249695879507949695879524
:102860000794982F802D982F8B81890F81500E947B
:10287000431402C082E0898389810F900F900F90EA
:10288000CF91DF910895DF93CF93CDB7DEB7AB97AC
:102890000FB6F894DEBF0FBECDBF8BA781E062E01C
:1028A00040E00E94371081E063E040E00E94371072
:1028B0008BA5982F991F9927991F80E067E0492FD2
:1028C0000E9437108BA58295869586958370982FE8
:1028D000917080E066E0492F0E9437108BA58295A9
:1028E00086958770982F917080E065E0492F0E944F
:1028F00037108BA582958F70982F917080E064E0DF
:10290000492F0E94371081E063E041E00E943710B8
:1029100080E090E0A0E8BFE38FA398A7A9A7BAA79B
:102920006FA178A589A59AA520E030E04AE755E493
:102930000E941D03DC01CB018BA39CA3ADA3BEA30E
:102940006BA17CA18DA19EA120E030E040E85FE377
:102950000E94770488232CF481E090E09AA389A355
:102960003FC06BA17CA18DA19EA120E03FEF4FE76E
:1029700057E40E94170418164CF56FA178A589A595
:102980009AA520E030E040E251E40E941D03DC0102
:10299000CB01BC01CD010E944701DC01CB019AA310
:1029A00089A30FC080E991E098A38F8F8F8D98A1A4
:1029B0000197F1F798A38F8F89A19AA101979AA304
:1029C00089A389A19AA1009769F714C06BA17CA182
:1029D0008DA19EA10E944701DC01CB019AA389A38E
:1029E00089A19AA19E8F8D8F8D8D9E8D0197F1F774
:1029F0009E8F8D8F81E063E040E00E9437108BA5B1
:102A0000869586958695982F917080E067E0492F8E
:102A10000E9437108BA586958695982F917080E03F
:102A200066E0492F0E9437108BA58695982F9170EC
:102A300080E065E0492F0E9437108BA5982F917098
:102A400080E064E0492F0E94371081E063E041E0BC
:102A50000E94371080E090E0A0E8BFE3898F9A8F52
:102A6000AB8FBC8F698D7A8D8B8D9C8D20E030E093
:102A70004AE755E40E941D03DC01CB018D8B9E8B40
:102A8000AF8BB88F6D897E898F89988D20E030E07B
:102A900040E85FE30E94770488232CF481E090E013
:102AA0009C8B8B8B3FC06D897E898F89988D20E0B0
:102AB0003FEF4FE757E40E94170418164CF5698D55
:102AC0007A8D8B8D9C8D20E030E040E251E40E94B5
:102AD0001D03DC01CB01BC01CD010E944701DC01DB
:102AE000CB019C8B8B8B0FC080E991E09A8B898BFB
:102AF00089899A890197F1F79A8B898B8B899C89AF
:102B000001979C8B8B8B8B899C89009769F714C0EC
:102B10006D897E898F89988D0E944701DC01CB01E8
:102B20009C8B8B8B8B899C89988B8F878F859889C1
:102B30000197F1F7988B8F8781E063E040E00E9476
:102B4000371080E090E0A0E0B0E48B879C87AD87F1
:102B5000BE876B857C858D859E8520E030E04AE7C9
:102B600055E40E941D03DC01CB018F839887A98760
:102B7000BA876F81788589859A8520E030E040E8C2
:102B80005FE30E94770488232CF481E090E09E8329
:102B90008D833FC06F81788589859A8520E03FEFDE
:102BA0004FE757E40E94170418164CF56B857C8597
:102BB0008D859E8520E030E040E251E40E941D03B7
:102BC000DC01CB01BC01CD010E944701DC01CB013E
:102BD0009E838D830FC080E991E09C838B838B81E2
:102BE0009C810197F1F79C838B838D819E81019756
:102BF0009E838D838D819E81009769F714C06F81BC
:102C0000788589859A850E944701DC01CB019E83E6
:102C10008D838D819E819A83898389819A81019791
:102C2000F1F79A83898380E0AB960FB6F894DEBF04
:102C30000FBECDBFCF91DF910895DF93CF93CDB776
:102C4000DEB70E94B1080E94E90C83E063E040E037
:102C50000E944B0F83E063E040E00E9437102AE0BF
:102C600037E181E0B9010E94730D8AEF96E10E947D
:102C7000330C0E94610CCF91DF910895EF92FF9287
:102C80000F931F93DF93CF9300D000D0CDB7DEB763
:102C90008091CB00833009F063C08091AB01282F75
:102CA00030E08091AD019091AE01CC01A0E0B0E0A8
:102CB000BA2FA92F982F8827820F931F9C838B836D
:102CC0008091AC01282F30E08091AF019091B0014C
:102CD000CC01A0E0B0E0BA2FA92F982F8827820F4F
:102CE000931F9A8389838B819C81CC01A0E0B0E003
:102CF00024E630E040E050E0BC01CD010E94373CCA
:102D00007B018C0189819A819C0140E050E0C801DF
:102D1000B7010E946A3CDA01C9018093CC00898125
:102D20009A81CC01A0E0B0E0880F991FAA1FBB1FB9
:102D3000880F991FAA1FBB1F880F991FAA1FBB1FAF
:102D40009C01AD0180E094E2A4EFB0E0BC01CD01B4
:102D50000E946A3CDA01C9019093CE008093CD00B5
:102D60000F900F900F900F90CF91DF911F910F91C7
:102D7000FF90EF900895DF93CF93CDB7DEB78091AA
:102D8000CB00833039F41092CB0080E00E944F0DCD
:102D90000E94610CCF91DF910895DF93CF930F9242
:102DA000CDB7DEB78FEF89838091CB00833019F4E4
:102DB0008091CC00898389810F90CF91DF91089514
:102DC000DF93CF9300D0CDB7DEB78FEF9FEF9A831D
:102DD00089838091CB00833031F48091CD00909134
:102DE000CE009A83898389819A810F900F90CF9129
:102DF000DF910895DF93CF93CDB7DEB78091B10116
:102E00009091B20101969093B2018093B101CF915C
:102E1000DF910895DF93CF9300D0CDB7DEB78091D7
:102E2000CB00282F30E03A83298389819A81813031
:102E30009105C1F029813A812230310539F189812A
:102E40009A810097B9F580E00E94490C1092B20176
:102E50001092B10180E06CE00E943A0D81E0809315
:102E6000CB0028C00E94570C8093AB018091B10128
:102E70009091B2019093AE018093AD0180E06AE53C
:102E80000E943A0D82E08093CB0014C00E94570C40
:102E90008093AC018091B1019091B2019093B00107
:102EA0008093AF0180E00E94610D0E946F0C83E06F
:102EB0008093CB000F900F90CF91DF910895DF9317
:102EC000CF93CDB7DEB76E970FB6F894DEBF0FBEC7
:102ED000CDBF8D8F8D8D883008F02CC180E065E0EE
:102EE00040E00E94371080E061E040E00E9437102F
:102EF0008D8D982F917081E060E0492F0E943710EE
:102F00008D8D8695982F917081E061E0492F0E9408
:102F100037108D8D86958695982F917081E062E0AF
:102F2000492F0E94371081E063E041E00E94371092
:102F300081E064E041E00E94371081E065E041E01B
:102F40000E94371081E066E040E00E94371081E087
:102F500067E041E00E94371080E090E0A0E4B0E438
:102F6000898F9A8FAB8FBC8F698D7A8D8B8D9C8D5D
:102F700020E030E04AE755E40E941D03DC01CB016C
:102F80008D8B9E8BAF8BB88F6D897E898F89988D45
:102F900020E030E040E85FE30E94770488232CF4CF
:102FA00081E090E09C8B8B8B3FC06D897E898F89FF
:102FB000988D20E03FEF4FE757E40E941704181662
:102FC0004CF5698D7A8D8B8D9C8D20E030E040E250
:102FD00051E40E941D03DC01CB01BC01CD010E9424
:102FE0004701DC01CB019C8B8B8B0FC080E991E00A
:102FF0009A8B898B89899A890197F1F79A8B898BAA
:103000008B899C8901979C8B8B8B8B899C890097E2
:1030100069F714C06D897E898F89988D0E94470158
:10302000DC01CB019C8B8B8B8B899C89988B8F8748
:103030008F8598890197F1F7988B8F8780E062E000
:1030400041E00E94371080E090E0A0E8BFE38B876A
:103050009C87AD87BE876B857C858D859E8520E0AE
:1030600030E04AE755E40E941D03DC01CB018F8369
:103070009887A987BA876F81788589859A8520E0A6
:1030800030E040E85FE30E94770488232CF481E07D
:1030900090E09E838D833FC06F81788589859A8576
:1030A00020E03FEF4FE757E40E94170418164CF555
:1030B0006B857C858D859E8520E030E040E251E483
:1030C0000E941D03DC01CB01BC01CD010E94470120
:1030D000DC01CB019E838D830FC080E991E09C834E
:1030E0008B838B819C810197F1F79C838B838D81EE
:1030F0009E8101979E838D838D819E81009769F7C4
:1031000014C06F81788589859A850E944701DC010A
:10311000CB019E838D838D819E819A838983898152
:103120009A810197F1F79A83898380E062E040E019
:103130000E9437106E960FB6F894DEBF0FBECDBF5B
:10314000CF91DF9108950F931F93DF93CF93CDB766
:10315000DEB7C854D0400FB6F894DEBF0FBECDBF67
:10316000FE01E95BFF4F8083FE01E95BFF4F808139
:103170008093B501FE01E95BFF4F8081803408F048
:103180006DC180E065E040E00E94371080E061E0C2
:1031900040E00E94371080E063E041E00E94371079
:1031A00080E067E040E00E943710FE01E95BFF4FDE
:1031B0008081982F917081E060E0492F0E94371044
:1031C000FE01E95BFF4F80818695982F917081E029
:1031D00061E0492F0E943710FE01E95BFF4F8081BB
:1031E00086958695982F917081E062E0492F0E9424
:1031F0003710FE01E95BFF4F8081869586958695A5
:10320000982F917081E063E0492F0E943710FE01F2
:10321000E95BFF4F808182958F70982F917081E0DC
:1032200064E0492F0E943710FE01E95BFF4F808167
:10323000829586958770982F917081E065E0492F7F
:103240000E94371081E066E041E00E94371081E083
:1032500067E040E00E943710FE01ED5BFF4F80E029
:1032600090E0A0E0B0E480839183A283B3838E01D9
:10327000015C1F4FFE01ED5BFF4F60817181828118
:10328000938120E030E04AE755E40E941D03DC0111
:10329000CB01F80180839183A283B383FE01FF9663
:1032A000608171818281938120E030E040E85FE3BA
:1032B0000E94770488232CF481E090E09EAF8DAFCC
:1032C00046C0FE01FF96608171818281938120E07A
:1032D0003FEF4FE757E40E941704181664F5FE010C
:1032E000ED5BFF4F608171818281938120E030E04E
:1032F00040E251E40E941D03DC01CB01BC01CD0181
:103300000E944701DC01CB019EAF8DAF0FC080E969
:1033100091E09CAF8BAF8BAD9CAD0197F1F79CAF6B
:103320008BAF8DAD9EAD01979EAF8DAF8DAD9EAD38
:10333000009769F716C0FE01FF9660817181828156
:1033400093810E944701DC01CB019EAF8DAF8DAD13
:103350009EAD9AAF89AF89AD9AAD0197F1F79AAF5B
:1033600089AF80E062E041E00E94371080E090E0A9
:10337000A0E8BFE38DAB9EABAFABB8AF6DA97EA9A4
:103380008FA998AD20E030E04AE755E40E941D0384
:10339000DC01CB0189AB9AABABABBCAB69A97AA919
:1033A0008BA99CA920E030E040E85FE30E9477040D
:1033B00088232CF481E090E098AB8FA73FC069A9E7
:1033C0007AA98BA99CA920E03FEF4FE757E40E9420
:1033D000170418164CF56DA97EA98FA998AD20E0A9
:1033E00030E040E251E40E941D03DC01CB01BC014E
:1033F000CD010E944701DC01CB0198AB8FA70FC024
:1034000080E991E09EA78DA78DA59EA50197F1F774
:103410009EA78DA78FA598A9019798AB8FA78FA579
:1034200098A9009769F714C069A97AA98BA99CA9E2
:103430000E944701DC01CB0198AB8FA78FA598A90B
:103440009CA78BA78BA59CA50197F1F79CA78BA7A1
:1034500080E062E040E00E943710FEC1FE01E95BBF
:10346000FF4F80818093B50180E065E040E00E94DD
:10347000371080E061E040E00E94371080E063E0B8
:1034800040E00E94371080E060E041E00E94371089
:1034900080E090E0A0E8BFE38FA398A7A9A7BAA710
:1034A0006FA178A589A59AA520E030E04AE755E408
:1034B0000E941D03DC01CB018BA39CA3ADA3BEA383
:1034C0006BA17CA18DA19EA120E030E040E85FE3EC
:1034D0000E94770488232CF481E090E09AA389A3CA
:1034E0003FC06BA17CA18DA19EA120E03FEF4FE7E3
:1034F00057E40E94170418164CF56FA178A589A50A
:103500009AA520E030E040E251E40E941D03DC0176
:10351000CB01BC01CD010E944701DC01CB019AA384
:1035200089A30FC080E991E098A38F8F8F8D98A118
:103530000197F1F798A38F8F89A19AA101979AA378
:1035400089A389A19AA1009769F714C06BA17CA1F6
:103550008DA19EA10E944701DC01CB019AA389A302
:1035600089A19AA19E8F8D8F8D8D9E8D0197F1F7E8
:103570009E8F8D8F80E067E041E00E943710FE0152
:10358000E95BFF4F80818054982F917081E060E06B
:10359000492F0E943710FE01E95BFF4F8081882F81
:1035A00090E08054904095958795982F917081E098
:1035B00061E0492F0E943710FE01E95BFF4F8081D7
:1035C000882F90E0805490409595879595958795A4
:1035D000982F917081E062E0492F0E943710FE0120
:1035E000E95BFF4F8081882F90E080549040959553
:1035F00087959595879595958795982F917081E0FA
:1036000063E0492F0E943710FE01E95BFF4F808184
:10361000882F90E080549040959587959595879553
:103620009595879595958795982F917081E064E0A1
:10363000492F0E943710FE01E95BFF4F8081882FE0
:1036400090E08054904095958795959587959595B0
:1036500087959595879595958795982F917081E099
:1036600065E0492F0E94371081E066E041E00E944A
:10367000371081E067E040E00E94371080E090E082
:10368000A0E0B0E4898F9A8FAB8FBC8F698D7A8D63
:103690008B8D9C8D20E030E04AE755E40E941D03AD
:1036A000DC01CB018D8B9E8BAF8BB88F6D897E89B2
:1036B0008F89988D20E030E040E85FE30E94770436
:1036C00088232CF481E090E09C8B8B8B3FC06D892C
:1036D0007E898F89988D20E03FEF4FE757E40E9465
:1036E000170418164CF5698D7A8D8B8D9C8D20E012
:1036F00030E040E251E40E941D03DC01CB01BC013B
:10370000CD010E944701DC01CB019C8B8B8B0FC04C
:1037100080E991E09A8B898B89899A890197F1F7E1
:103720009A8B898B8B899C8901979C8B8B8B8B893E
:103730009C89009769F714C06D897E898F89988D5F
:103740000E944701DC01CB019C8B8B8B8B899C8970
:10375000988B8F878F8598890197F1F7988B8F8742
:1037600080E062E041E00E94371080E090E0A0E855
:10377000BFE38B879C87AD87BE876B857C858D85F6
:103780009E8520E030E04AE755E40E941D03DC01FD
:10379000CB018F839887A987BA876F8178858985C0
:1037A0009A8520E030E040E85FE30E9477048823B8
:1037B0002CF481E090E09E838D833FC06F817885FB
:1037C00089859A8520E03FEF4FE757E40E94170470
:1037D00018164CF56B857C858D859E8520E030E044
:1037E00040E251E40E941D03DC01CB01BC01CD018C
:1037F0000E944701DC01CB019E838D830FC080E9CD
:1038000091E09C838B838B819C810197F1F79C8352
:103810008B838D819E8101979E838D838D819E8177
:10382000009769F714C06F81788589859A850E9411
:103830004701DC01CB019E838D838D819E819A831C
:10384000898389819A810197F1F79A83898380E03E
:1038500062E040E00E943710C85BDF4F0FB6F8947B
:10386000DEBF0FBECDBFCF91DF911F910F910895A5
:10387000DF93CF93CDB7DEB78091B401CF91DF91C5
:103880000895DF93CF93CDB7DEB78091B501CF9187
:10389000DF910895DF93CF93CDB7DEB7EA970FB6E8
:1038A000F894DEBF0FBECDBF81E089AF80E063E05A
:1038B00041E00E944B0F80E067E041E00E944B0F27
:1038C00080E065E041E00E944B0F80E061E041E074
:1038D0000E944B0F80E062E041E00E944B0F80E0CD
:1038E00060E041E00E944B0F80E065E040E00E9414
:1038F000371080E061E040E00E94371080E090E007
:10390000A0EAB0E48DAB9EABAFABB8AF6DA97EA91A
:103910008FA998AD20E030E04AE755E40E941D03EE
:10392000DC01CB0189AB9AABABABBCAB69A97AA983
:103930008BA99CA920E030E040E85FE30E94770477
:1039400088232CF481E090E098AB8FA73FC069A951
:103950007AA98BA99CA920E03FEF4FE757E40E948A
:10396000170418164CF56DA97EA98FA998AD20E013
:1039700030E040E251E40E941D03DC01CB01BC01B8
:10398000CD010E944701DC01CB0198AB8FA70FC08E
:1039900080E991E09EA78DA78DA59EA50197F1F7DF
:1039A0009EA78DA78FA598A9019798AB8FA78FA5E4
:1039B00098A9009769F714C069A97AA98BA99CA94D
:1039C0000E944701DC01CB0198AB8FA78FA598A976
:1039D0009CA78BA78BA59CA50197F1F79CA78BA70C
:1039E00080E060E040E00E94371080E090E0A0EAD4
:1039F000B0E48FA398A7A9A7BAA76FA178A589A5B6
:103A00009AA520E030E04AE755E40E941D03DC015E
:103A1000CB018BA39CA3ADA3BEA36BA17CA18DA165
:103A20009EA120E030E040E85FE30E947704882315
:103A30002CF481E090E09AA389A33FC06BA17CA104
:103A40008DA19EA120E03FEF4FE757E40E941704AD
:103A500018164CF56FA178A589A59AA520E030E04D
:103A600040E251E40E941D03DC01CB01BC01CD0109
:103A70000E944701DC01CB019AA389A30FC080E912
:103A800091E098A38F8F8F8D98A10197F1F798A35C
:103A90008F8F89A19AA101979AA389A389A19AA13D
:103AA000009769F714C06BA17CA18DA19EA10E9413
:103AB0004701DC01CB019AA389A389A19AA19E8F1A
:103AC0008D8F8D8D9E8D0197F1F79E8F8D8F80E06C
:103AD00060E041E00E94371080E063E040E00E9437
:103AE000371080E067E040E00E94371081E060E03E
:103AF00041E00E944B0F81E061E041E00E944B0FEA
:103B000081E062E041E00E944B0F81E063E041E030
:103B10000E944B0F81E064E041E00E944B0F81E086
:103B200065E041E00E944B0F81E066E041E00E94C9
:103B30004B0F81E067E041E00E944B0F81E060E0C5
:103B400041E00E94371081E061E041E00E943710BF
:103B500081E062E041E00E94371081E063E041E0F3
:103B60000E94371081E064E041E00E94371081E05C
:103B700065E041E00E94371081E066E040E00E948D
:103B8000371081E067E040E00E94371080E090E06D
:103B9000A0E0B0E4898F9A8FAB8FBC8F698D7A8D4E
:103BA0008B8D9C8D20E030E04AE755E40E941D0398
:103BB000DC01CB018D8B9E8BAF8BB88F6D897E899D
:103BC0008F89988D20E030E040E85FE30E94770421
:103BD00088232CF481E090E09C8B8B8B3FC06D8917
:103BE0007E898F89988D20E03FEF4FE757E40E9450
:103BF000170418164CF5698D7A8D8B8D9C8D20E0FD
:103C000030E040E251E40E941D03DC01CB01BC0125
:103C1000CD010E944701DC01CB019C8B8B8B0FC037
:103C200080E991E09A8B898B89899A890197F1F7CC
:103C30009A8B898B8B899C8901979C8B8B8B8B8929
:103C40009C89009769F714C06D897E898F89988D4A
:103C50000E944701DC01CB019C8B8B8B8B899C895B
:103C6000988B8F878F8598890197F1F7988B8F872D
:103C700080E062E041E00E94371080E090E0A0E840
:103C8000BFE38B879C87AD87BE876B857C858D85E1
:103C90009E8520E030E04AE755E40E941D03DC01E8
:103CA000CB018F839887A987BA876F8178858985AB
:103CB0009A8520E030E040E85FE30E9477048823A3
:103CC0002CF481E090E09E838D833FC06F817885E6
:103CD00089859A8520E03FEF4FE757E40E9417045B
:103CE00018164CF56B857C858D859E8520E030E02F
:103CF00040E251E40E941D03DC01CB01BC01CD0177
:103D00000E944701DC01CB019E838D830FC080E9B7
:103D100091E09C838B838B819C810197F1F79C833D
:103D20008B838D819E8101979E838D838D819E8162
:103D3000009769F714C06F81788589859A850E94FC
:103D40004701DC01CB019E838D838D819E819A8307
:103D5000898389819A810197F1F79A83898380E029
:103D600062E040E00E943710EA960FB6F894DEBF9A
:103D70000FBECDBFCF91DF910895DF93CF93CDB725
:103D8000DEB7EA970FB6F894DEBF0FBECDBF89AF9E
:103D900089AD8093B50189AD803408F048C180E0D9
:103DA00065E040E00E94371080E061E040E00E9462
:103DB000371080E063E041E00E94371080E067E068
:103DC00040E00E94371089AD982F917081E060E04B
:103DD000492F0E94371089AD8695982F917081E008
:103DE00061E0492F0E94371089AD86958695982FFE
:103DF000917081E062E0492F0E94371089AD86956D
:103E000086958695982F917081E063E0492F0E94F6
:103E1000371089AD82958F70982F917081E064E0A2
:103E2000492F0E94371089AD829586958770982F0B
:103E3000917081E065E0492F0E94371081E066E0D3
:103E400041E00E94371081E067E040E00E943710B7
:103E500080E090E0A0E0B0E48DAB9EABAFABB8AF3C
:103E60006DA97EA98FA998AD20E030E04AE755E41E
:103E70000E941D03DC01CB0189AB9AABABABBCABA1
:103E800069A97AA98BA99CA920E030E040E85FE30A
:103E90000E94770488232CF481E090E098AB8FA7F0
:103EA0003FC069A97AA98BA99CA920E03FEF4FE701
:103EB00057E40E94170418164CF56DA97EA98FA926
:103EC00098AD20E030E040E251E40E941D03DC01A7
:103ED000CB01BC01CD010E944701DC01CB0198ABB5
:103EE0008FA70FC080E991E09EA78DA78DA59EA505
:103EF0000197F1F79EA78DA78FA598A9019798AB79
:103F00008FA78FA598A9009769F714C069A97AA906
:103F10008BA99CA90E944701DC01CB0198AB8FA71C
:103F20008FA598A99CA78BA78BA59CA50197F1F7B6
:103F30009CA78BA780E062E041E00E94371080E000
:103F400090E0A0E8BFE38FA398A7A9A7BAA76FA1A5
:103F500078A589A59AA520E030E04AE755E40E94BB
:103F60001D03DC01CB018BA39CA3ADA3BEA36BA15E
:103F70007CA18DA19EA120E030E040E85FE30E949B
:103F8000770488232CF481E090E09AA389A33FC0B2
:103F90006BA17CA18DA19EA120E03FEF4FE757E4EC
:103FA0000E94170418164CF56FA178A589A59AA54B
:103FB00020E030E040E251E40E941D03DC01CB012F
:103FC000BC01CD010E944701DC01CB019AA389A36A
:103FD0000FC080E991E098A38F8F8F8D98A10197F2
:103FE000F1F798A38F8F89A19AA101979AA389A32A
:103FF00089A19AA1009769F714C06BA17CA18DA13A
:104000009EA10E944701DC01CB019AA389A389A14B
:104010009AA19E8F8D8F8D8D9E8D0197F1F79E8F2A
:104020008D8F80E062E040E00E9437106FC180E039
:1040300065E040E00E94371080E061E040E00E94CF
:10404000371080E063E040E00E94371080E067E0D6
:1040500041E00E94371089AD8054982F917081E023
:1040600060E0492F0E94371089AD882F90E080547E
:10407000904095958795982F917081E061E0492F48
:104080000E94371089AD882F90E08054904095951C
:10409000879595958795982F917081E062E0492FDB
:1040A0000E94371089AD882F90E0805490409595FC
:1040B00087959595879595958795982F917081E02F
:1040C00063E0492F0E94371089AD882F90E080541B
:1040D0009040959587959595879595958795959514
:1040E0008795982F917081E064E0492F0E943710E6
:1040F00089AD882F90E0805490409595879595954F
:104100008795959587959595879595958795982FFA
:10411000917081E065E0492F0E94371081E066E0F0
:1041200041E00E94371081E067E040E00E943710D4
:1041300080E090E0A0E0B0E4898F9A8FAB8FBC8FD5
:10414000698D7A8D8B8D9C8D20E030E04AE755E4B7
:104150000E941D03DC01CB018D8B9E8BAF8BB88F32
:104160006D897E898F89988D20E030E040E85FE39B
:104170000E94770488232CF481E090E09C8B8B8B49
:104180003FC06D897E898F89988D20E03FEF4FE792
:1041900057E40E94170418164CF5698D7A8D8B8DA3
:1041A0009C8D20E030E040E251E40E941D03DC01E0
:1041B000CB01BC01CD010E944701DC01CB019C8BEE
:1041C0008B8B0FC080E991E09A8B898B89899A89C2
:1041D0000197F1F79A8B898B8B899C8901979C8B2E
:1041E0008B8B8B899C89009769F714C06D897E89B8
:1041F0008F89988D0E944701DC01CB019C8B8B8BB2
:104200008B899C89988B8F878F8598890197F1F787
:10421000988B8F8780E062E041E00E94371080E059
:1042200090E0A0E8BFE38B879C87AD87BE876B8556
:104230007C858D859E8520E030E04AE755E40E942C
:104240001D03DC01CB018F839887A987BA876F8113
:10425000788589859A8520E030E040E85FE30E9418
:10426000770488232CF481E090E09E838D833FC007
:104270006F81788589859A8520E03FEF4FE757E485
:104280000E94170418164CF56B857C858D859E85DC
:1042900020E030E040E251E40E941D03DC01CB014C
:1042A000BC01CD010E944701DC01CB019E838D83BF
:1042B0000FC080E991E09C838B838B819C81019767
:1042C000F1F79C838B838D819E8101979E838D83E3
:1042D0008D819E81009769F714C06F8178858985EB
:1042E0009A850E944701DC01CB019E838D838D81DD
:1042F0009E819A83898389819A810197F1F79A83B4
:10430000898380E062E040E00E943710EA960FB6B1
:10431000F894DEBF0FBECDBFCF91DF910895DF933C
:10432000CF93CDB7DEB7AC970FB6F894DEBF0FBE14
:10433000CDBF8BA780E090E0A0E4B0E48FA398A766
:10434000A9A7BAA76FA178A589A59AA520E030E012
:104350004AE755E40E941D03DC01CB018BA39CA31B
:10436000ADA3BEA36BA17CA18DA19EA120E030E0F6
:1043700040E85FE30E94770488232CF481E090E01A
:104380009AA389A33FC06BA17CA18DA19EA120E02F
:104390003FEF4FE757E40E94170418164CF56FA142
:1043A00078A589A59AA520E030E040E251E40E947A
:1043B0001D03DC01CB01BC01CD010E944701DC01E2
:1043C000CB019AA389A30FC080E991E098A38F8FB6
:1043D0008F8D98A10197F1F798A38F8F89A19AA14A
:1043E00001979AA389A389A19AA1009769F714C09C
:1043F0006BA17CA18DA19EA10E944701DC01CB0194
:104400009AA389A389A19AA19E8F8D8F8D8D9E8D50
:104410000197F1F79E8F8D8F8BA58093B40180E07B
:1044200065E040E00E94371080E061E040E00E94DB
:1044300037108BA5982F917081E060E0492F0E9482
:1044400037108BA58695982F917081E061E0492FF8
:104450000E9437108BA586958695982F917081E0E4
:1044600062E0492F0E94371081E063E041E00E9442
:10447000371081E064E041E00E94371081E065E0A0
:1044800041E00E94371081E066E040E00E94371072
:1044900081E067E041E00E94371080E090E0A0E812
:1044A000BFE3898F9A8FAB8FBC8F698D7A8D8B8D8F
:1044B0009C8D20E030E04AE755E40E941D03DC01BA
:1044C000CB018D8B9E8BAF8BB88F6D897E898F8949
:1044D000988D20E030E040E85FE30E947704882375
:1044E0002CF481E090E09C8B8B8B3FC06D897E89A2
:1044F0008F89988D20E03FEF4FE757E40E94170423
:1045000018164CF5698D7A8D8B8D9C8D20E030E0EE
:1045100040E251E40E941D03DC01CB01BC01CD014E
:104520000E944701DC01CB019C8B8B8B0FC080E983
:1045300091E09A8B898B89899A890197F1F79A8BF7
:10454000898B8B899C8901979C8B8B8B8B899C8910
:10455000009769F714C06D897E898F89988D0E94B4
:104560004701DC01CB019C8B8B8B8B899C89988BC1
:104570008F878F8598890197F1F7988B8F8780E0D7
:1045800062E041E00E94371080E090E0A0E8BFE3E5
:104590008B879C87AD87BE876B857C858D859E8547
:1045A00020E030E04AE755E40E941D03DC01CB0126
:1045B0008F839887A987BA876F81788589859A853F
:1045C00020E030E040E85FE30E94770488232CF489
:1045D00081E090E09E838D833FC06F8178858985DF
:1045E0009A8520E03FEF4FE757E40E941704181622
:1045F0004CF56B857C858D859E8520E030E040E222
:1046000051E40E941D03DC01CB01BC01CD010E94DD
:104610004701DC01CB019E838D830FC080E991E0CF
:104620009C838B838B819C810197F1F79C838B8387
:104630008D819E8101979E838D838D819E810097C0
:1046400069F714C06F81788589859A850E94470132
:10465000DC01CB019E838D838D819E819A8389832A
:1046600089819A810197F1F79A83898380E062E0DA
:1046700040E00E943710AC960FB6F894DEBF0FBE34
:10468000CDBFCF91DF910895DF93CF93CDB7DEB744
:104690006E970FB6F894DEBF0FBECDBF8D8F8D8D98
:1046A000982F917081E060E0492F0E9437108D8D26
:1046B0008695982F917081E061E0492F0E94371014
:1046C0008D8D86958695982F917081E062E0492FB7
:1046D0000E9437108D8D869586958695982F9170BE
:1046E00081E063E0492F0E9437108D8D82958F7095
:1046F000982F917081E064E0492F0E9437108D8DD2
:10470000829586958770982F917081E065E0492F9A
:104710000E94371081E066E041E00E94371081E09E
:1047200067E041E00E94371080E090E0A0E0B0E454
:10473000898F9A8FAB8FBC8F698D7A8D8B8D9C8D75
:1047400020E030E04AE755E40E941D03DC01CB0184
:104750008D8B9E8BAF8BB88F6D897E898F89988D5D
:1047600020E030E040E85FE30E94770488232CF4E7
:1047700081E090E09C8B8B8B3FC06D897E898F8917
:10478000988D20E03FEF4FE757E40E94170418167A
:104790004CF5698D7A8D8B8D9C8D20E030E040E268
:1047A00051E40E941D03DC01CB01BC01CD010E943C
:1047B0004701DC01CB019C8B8B8B0FC080E991E022
:1047C0009A8B898B89899A890197F1F79A8B898BC2
:1047D0008B899C8901979C8B8B8B8B899C890097FB
:1047E00069F714C06D897E898F89988D0E94470171
:1047F000DC01CB019C8B8B8B8B899C89988B8F8761
:104800008F8598890197F1F7988B8F8780E062E018
:1048100040E00E94371080E090E0A0E8BFE38B8783
:104820009C87AD87BE876B857C858D859E8520E0C6
:1048300030E04AE755E40E941D03DC01CB018F8381
:104840009887A987BA876F81788589859A8520E0BE
:1048500030E040E85FE30E94770488232CF481E095
:1048600090E09E838D833FC06F81788589859A858E
:1048700020E03FEF4FE757E40E94170418164CF56D
:104880006B857C858D859E8520E030E040E251E49B
:104890000E941D03DC01CB01BC01CD010E94470138
:1048A000DC01CB019E838D830FC080E991E09C8366
:1048B0008B838B819C810197F1F79C838B838D8106
:1048C0009E8101979E838D838D819E81009769F7DC
:1048D00014C06F81788589859A850E944701DC0123
:1048E000CB019E838D838D819E819A83898389816B
:1048F0009A810197F1F79A83898380E062E041E031
:104900000E9437106E960FB6F894DEBF0FBECDBF73
:10491000CF91DF9108950F931F93DF93CF93CDB77E
:10492000DEB7C456D0400FB6F894DEBF0FBECDBF81
:10493000FE01ED59FF4F808380E065E041E00E9479
:10494000371080E061E040E00E943710FE01ED5931
:10495000FF4F8081982F917081E060E0492F0E9485
:104960003710FE01ED59FF4F80818695982F917089
:1049700081E061E0492F0E943710FE01ED59FF4FA1
:10498000808186958695982F917081E062E0492F0D
:104990000E943710FE01ED59FF4F80818695869564
:1049A0008695982F917081E063E0492F0E9437101F
:1049B000FE01ED59FF4F808182958F70982F917085
:1049C00081E064E0492F0E943710FE01ED59FF4F4E
:1049D0008081829586958770982F917081E065E03F
:1049E000492F0E943710FE01ED59FF4F80818295BB
:1049F000869586958370982F917081E066E0492FA7
:104A00000E943710FE01ED59FF4F8081982F991FAA
:104A10009927991F81E067E0492F0E943710809104
:104A2000B5018F5F8093B501FE01E15AFF4F80E031
:104A300090E0A0E0B0E480839183A283B3838E01F1
:104A4000055A1F4FFE01E15AFF4F6081718182813B
:104A5000938120E030E04AE755E40E941D03DC0129
:104A6000CB01F80180839183A283B383FE01E55AD1
:104A7000FF4F608171818281938120E030E040E8C6
:104A80005FE30E947704882344F4FE01E75AFF4F56
:104A900081E090E09183808364C0FE01E55AFF4F7E
:104AA000608171818281938120E03FEF4FE757E47D
:104AB0000E94170418160CF043C0FE01E15AFF4F84
:104AC000608171818281938120E030E040E251E495
:104AD0000E941D03DC01CB018E01075A1F4FBC0150
:104AE000CD010E944701DC01CB01F8019183808355
:104AF0001FC0FE01E95AFF4F80E991E09183808356
:104B0000FE01E95AFF4F808191810197F1F7FE0183
:104B1000E95AFF4F91838083DE01A75ABF4FFE0100
:104B2000E75AFF4F80819181019711969C938E9354
:104B3000FE01E75AFF4F808191810097D1F627C08F
:104B40008E01075A1F4FFE01E55AFF4F60817181A8
:104B5000828193810E944701DC01CB01F80191839E
:104B60008083DE01AB5ABF4FFE01E75AFF4F8081C1
:104B700091818D939C93FE01EB5AFF4F808191812F
:104B80000197F1F7FE01EB5AFF4F9183808380E09C
:104B900062E041E00E943710FE01EF5AFF4F80E0D3
:104BA00090E0A0E8BFE380839183A283B3838E016A
:104BB000035B1F4FFE01EF5AFF4F608171818281BD
:104BC000938120E030E04AE755E40E941D03DC01B8
:104BD000CB01F80180839183A283B383FE01E35B61
:104BE000FF4F608171818281938120E030E040E855
:104BF0005FE30E947704882344F4FE01E55BFF4FE6
:104C000081E090E09183808364C0FE01E35BFF4F0D
:104C1000608171818281938120E03FEF4FE757E40B
:104C20000E94170418160CF043C0FE01EF5AFF4F04
:104C3000608171818281938120E030E040E251E423
:104C40000E941D03DC01CB018E01055B1F4FBC01DF
:104C5000CD010E944701DC01CB01F80191838083E3
:104C60001FC0FE01E75BFF4F80E991E091838083E5
:104C7000FE01E75BFF4F808191810197F1F7FE0113
:104C8000E75BFF4F91838083DE01A55BBF4FFE0191
:104C9000E55BFF4F80819181019711969C938E93E4
:104CA000FE01E55BFF4F808191810097D1F627C01F
:104CB0008E01055B1F4FFE01E35BFF4F6081718139
:104CC000828193810E944701DC01CB01F80191832D
:104CD0008083DE01A95BBF4FFE01E55BFF4F808152
:104CE00091818D939C93FE01E95BFF4F80819181BF
:104CF0000197F1F7FE01E95BFF4F9183808380E02C
:104D000062E040E00E9437108091B501803408F0E5
:104D10000AC18091B4010E945F178091B5010E9481
:104D2000A318FE01ED5BFF4F80E090E0A0EAB0E445
:104D300080839183A283B3838E01015C1F4FFE01A8
:104D4000ED5BFF4F608171818281938120E030E0D3
:104D50004AE755E40E941D03DC01CB01F801808382
:104D60009183A283B383FE01FF966081718182816A
:104D7000938120E030E040E85FE30E9477048823DD
:104D80002CF481E090E09EAF8DAF46C0FE01FF960F
:104D9000608171818281938120E03FEF4FE757E48A
:104DA0000E941704181664F5FE01ED5BFF4F608149
:104DB00071818281938120E030E040E251E40E94E1
:104DC0001D03DC01CB01BC01CD010E944701DC01C8
:104DD000CB019EAF8DAF0FC080E991E09CAF8BAF50
:104DE0008BAD9CAD0197F1F79CAF8BAF8DAD9EADB8
:104DF00001979EAF8DAF8DAD9EAD009769F716C040
:104E0000FE01FF9660817181828193810E9447013A
:104E1000DC01CB019EAF8DAF8DAD9EAD9AAF89AF5A
:104E200089AD9AAD0197F1F79AAF89AF80E063E061
:104E300041E00E94371080E090E0A0E8BFE38DAB36
:104E40009EABAFABB8AF6DA97EA98FA998AD20E09E
:104E500030E04AE755E40E941D03DC01CB0189AB39
:104E60009AABABABBCAB69A97AA98BA99CA920E092
:104E700030E040E85FE30E94770488232CF481E06F
:104E800090E098AB8FA73FC069A97AA98BA99CA98C
:104E900020E03FEF4FE757E40E94170418164CF547
:104EA0006DA97EA98FA998AD20E030E040E251E4E1
:104EB0000E941D03DC01CB01BC01CD010E94470112
:104EC000DC01CB0198AB8FA70FC080E991E09EA7D2
:104ED0008DA78DA59EA50197F1F79EA78DA78FA5FC
:104EE00098A9019798AB8FA78FA598A9009769F704
:104EF00014C069A97AA98BA99CA90E944701DC0169
:104F0000CB0198AB8FA78FA598A99CA78BA78BA542
:104F10009CA50197F1F79CA78BA780E067E040E094
:104F20000E94371088C18091B501803408F4FCC01C
:104F30008091B50188230CF4F7C08091B4010E94E0
:104F40005F178091B5010E94A31880E090E0A0EA6D
:104F5000B0E48FA398A7A9A7BAA76FA178A589A540
:104F60009AA520E030E04AE755E40E941D03DC01E9
:104F7000CB018BA39CA3ADA3BEA36BA17CA18DA1F0
:104F80009EA120E030E040E85FE30E9477048823A0
:104F90002CF481E090E09AA389A33FC06BA17CA18F
:104FA0008DA19EA120E03FEF4FE757E40E94170438
:104FB00018164CF56FA178A589A59AA520E030E0D8
:104FC00040E251E40E941D03DC01CB01BC01CD0194
:104FD0000E944701DC01CB019AA389A30FC080E99D
:104FE00091E098A38F8F8F8D98A10197F1F798A3E7
:104FF0008F8F89A19AA101979AA389A389A19AA1C8
:10500000009769F714C06BA17CA18DA19EA10E949D
:105010004701DC01CB019AA389A389A19AA19E8FA4
:105020008D8F8D8D9E8D0197F1F79E8F8D8F80E0F6
:1050300063E040E00E94371080E090E0A0E8BFE32A
:10504000898F9A8FAB8FBC8F698D7A8D8B8D9C8D5C
:1050500020E030E04AE755E40E941D03DC01CB016B
:105060008D8B9E8BAF8BB88F6D897E898F89988D44
:1050700020E030E040E85FE30E94770488232CF4CE
:1050800081E090E09C8B8B8B3FC06D897E898F89FE
:10509000988D20E03FEF4FE757E40E941704181661
:1050A0004CF5698D7A8D8B8D9C8D20E030E040E24F
:1050B00051E40E941D03DC01CB01BC01CD010E9423
:1050C0004701DC01CB019C8B8B8B0FC080E991E009
:1050D0009A8B898B89899A890197F1F79A8B898BA9
:1050E0008B899C8901979C8B8B8B8B899C890097E2
:1050F00069F714C06D897E898F89988D0E94470158
:10510000DC01CB019C8B8B8B8B899C89988B8F8747
:105110008F8598890197F1F7988B8F8780E067E0FA
:1051200041E00E94371087C08091B50188230CF0C0
:1051300082C01092B5018091B5010E94A31880E051
:1051400063E041E00E94371080E090E0A0E8BFE318
:105150008B879C87AD87BE876B857C858D859E857B
:1051600020E030E04AE755E40E941D03DC01CB015A
:105170008F839887A987BA876F81788589859A8573
:1051800020E030E040E85FE30E94770488232CF4BD
:1051900081E090E09E838D833FC06F817885898513
:1051A0009A8520E03FEF4FE757E40E941704181656
:1051B0004CF56B857C858D859E8520E030E040E256
:1051C00051E40E941D03DC01CB01BC01CD010E9412
:1051D0004701DC01CB019E838D830FC080E991E004
:1051E0009C838B838B819C810197F1F79C838B83BC
:1051F0008D819E8101979E838D838D819E810097F5
:1052000069F714C06F81788589859A850E94470166
:10521000DC01CB019E838D838D819E819A8389835E
:1052200089819A810197F1F79A83898380E067E009
:1052300040E00E943710CC59DF4F0FB6F894DEBF24
:105240000FBECDBFCF91DF911F910F910895DF93D6
:10525000CF93CDB7DEB7C259D1400FB6F894DEBFB9
:105260000FBECDBFFE01E651FF4F8083FE01E65128
:10527000FF4F8081282F30E0C551DF4F39832883CD
:10528000CB5ED040C551DF4F88819981CB5ED04045
:105290008136910509F498C1C551DF4FE881F98144
:1052A000CB5ED040E236F1050CF0D4C0C551DF4FE3
:1052B00028813981CB5ED0402633310511F40C941E
:1052C0002D35C551DF4F88819981CB5ED040873322
:1052D00091050CF05AC0C551DF4FE881F981CB5ED2
:1052E000D040E233F10511F40C947D33C551DF4F0A
:1052F00028813981CB5ED0402333310574F5C55107
:10530000DF4F88819981CB5ED0408033910511F4C5
:105310000C94A532C551DF4FE881F981CB5ED040B6
:10532000E133F10514F00C941133C551DF4F28819E
:105330003981CB5ED0402032310511F40C94CD314F
:10534000C551DF4F88819981CB5ED0408D32910568
:1053500011F40C948D380C94F838C551DF4FE88166
:10536000F981CB5ED040E433F10511F40C9455344F
:10537000C551DF4F28813981CB5ED04025333105BF
:1053800014F00C94C1340C94E933C551DF4F88817B
:105390009981CB5ED0408634910511F40C94B537D9
:1053A000C551DF4FE881F981CB5ED040E734F1058C
:1053B00074F5C551DF4F28813981CB5ED040283349
:1053C000310511F40C940536C551DF4F8881998160
:1053D000CB5ED0408833910514F40C949935C551B7
:1053E000DF4FE881F981CB5ED040E933F10511F45C
:1053F0000C947136C551DF4F28813981CB5ED04086
:105400002D33310511F40C9439320C94F838C55110
:10541000DF4F88819981CB5ED0408C34910511F4A7
:105420000C944937C551DF4FE881F981CB5ED040FC
:10543000E235F10511F40C942138C551DF4F288174
:105440003981CB5ED0402834310511F40C94DD361F
:105450000C94F838C551DF4F88819981CB5ED040DC
:105460008D36910509F432C4C551DF4FE881F981C9
:10547000CB5ED040EE36F1050CF053C0C551DF4F86
:1054800028813981CB5ED0402636310509F46AC2C5
:10549000C551DF4F88819981CB5ED0408736910519
:1054A00004F5C551DF4FE881F981CB5ED040E43689
:1054B000F10509F47DC1C551DF4F28813981CB5EEB
:1054C000D040253631050CF0E0C1C551DF4F888151
:1054D0009981CB5ED0408336910509F4F2C00C94DB
:1054E000F838C551DF4FE881F981CB5ED040E9360D
:1054F000F10509F411C3C551DF4F28813981CB5E15
:10550000D0402B36310509F474C3C551DF4F888173
:105510009981CB5ED0408836910509F490C20C94F5
:10552000F838C551DF4FE881F981CB5ED040E437D0
:10553000F10509F47FC5C551DF4F28813981CB5E64
:10554000D0402537310504F5C551DF4F8881998159
:10555000CB5ED0408137910509F492C4C551DF4F2D
:10556000E881F981CB5ED040E237F10509F4F5C45A
:10557000C551DF4F28813981CB5ED0402E363105B1
:1055800009F411C40C94F838C551DF4F8881998112
:10559000CB5ED0408937910509F426C6C551DF4F4F
:1055A000E881F981CB5ED040EA37F10509F489C67C
:1055B000C551DF4F28813981CB5ED0402537310579
:1055C00009F4A5C50C94F838CE018D5B9F4FC251EC
:1055D000DF4F99838883CE5ED04081E791E0C05150
:1055E000DF4F99838883C05FD04095E0CE50DF4F76
:1055F0009883C25FD040C051DF4FE881F981C05F1E
:10560000D0400080C051DF4F28813981C05FD04039
:105610002F5F3F4FC051DF4F39832883C05FD04099
:10562000C251DF4FE881F981CE5ED0400082C25185
:10563000DF4F28813981CE5ED0402F5F3F4FC2516E
:10564000DF4F39832883CE5ED040CE50DF4F388184
:10565000C25FD0403150CE50DF4F3883C25FD04060
:10566000CE50DF4F8881C25FD040882321F6FE01F3
:10567000EF5BFF4F118210821AC0FE01EF5BFF4FFC
:1056800020813181CE018D5B9F4FFC01E20FF31F22
:1056900080810E948B24DE01AF5BBF4FFE01EF5B78
:1056A000FF4F80819181019611969C938E93FE010C
:1056B000EF5BFF4F8081918185309105F4F20C946E
:1056C000F838CE01885B9F4FCD50DF4F9983888398
:1056D000C35FD040ECE6F1E0CB50DF4FF983E883C5
:1056E000C55FD040F5E0C950DF4FF883C75FD040B9
:1056F000CB50DF4FE881F981C55FD0400080CB50AF
:10570000DF4F28813981C55FD0402F5F3F4FCB509D
:10571000DF4F39832883C55FD040CD50DF4FE8810C
:10572000F981C35FD0400082CD50DF4F288139819D
:10573000C35FD0402F5F3F4FCD50DF4F3983288369
:10574000C35FD040C950DF4F3881C75FD040315070
:10575000C950DF4F3883C75FD040C950DF4F8881C1
:10576000C75FD040882321F6FE01FF961182108288
:1057700016C0FE01FF9620813181CE01885B9F4FCC
:10578000FC01E20FF31F80810E948B24FE01FF9633
:10579000808191810196FE01FF9691838083FE01B5
:1057A000FF9680819181853091051CF30C94F83827
:1057B000CE01835B9F4FC850DF4F99838883C85FBA
:1057C000D040E7E6F1E0C650DF4FF983E883CA5FD7
:1057D000D040F5E0C450DF4FF883CC5FD040C650D6
:1057E000DF4FE881F981CA5FD0400080C650DF4FAB
:1057F00028813981CA5FD0402F5F3F4FC650DF4FAD
:1058000039832883CA5FD040C850DF4FE881F981CF
:10581000C85FD0400082C850DF4F28813981C85FFF
:10582000D0402F5F3F4FC850DF4F39832883C85F78
:10583000D040C450DF4F3881CC5FD0403150C4508D
:10584000DF4F3883CC5FD040C450DF4F8881CC5FBE
:10585000D040882321F61EAE1DAE10C02DAD3EAD4A
:10586000CE01835B9F4FFC01E20FF31F80810E94FA
:105870008B248DAD9EAD01969EAF8DAF8DAD9EAD4F
:10588000853091055CF30C94F838CE018E5A9F4F09
:10589000C350DF4F99838883CD5FD040E2E6F1E0CB
:1058A000C150DF4FF983E883CF5FD040F5E0CF5F91
:1058B000DE4FF883C150D140C150DF4FE881F981FC
:1058C000CF5FD0400080C150DF4F28813981CF5F4A
:1058D000D0402F5F3F4FC150DF4F39832883CF5FC8
:1058E000D040C350DF4FE881F981CD5FD0400082C6
:1058F000C350DF4F28813981CD5FD0402F5F3F4FAC
:10590000C350DF4F39832883CD5FD040CF5FDE4F58
:105910003881C150D1403150CF5FDE4F3883C15004
:10592000D140CF5FDE4F8881C150D140882321F61E
:105930001CAE1BAE10C02BAD3CADCE018E5A9F4F9E
:10594000FC01E20FF31F80810E948B248BAD9CAD84
:1059500001969CAF8BAF8BAD9CAD853091055CF310
:105960000C94F838CE01895A9F4FCE5FDE4F998351
:105970008883C250D140EDE5F1E0CC5FDE4FF98382
:10598000E883C450D140F5E0CA5FDE4FF883C650CB
:10599000D140CC5FDE4FE881F981C450D140008016
:1059A000CC5FDE4F28813981C450D1402F5F3F4FFB
:1059B000CC5FDE4F39832883C450D140CE5FDE4FA9
:1059C000E881F981C250D1400082CE5FDE4F28814C
:1059D0003981C250D1402F5F3F4FCE5FDE4F3983B8
:1059E0002883C250D140CA5FDE4F3881C650D140B3
:1059F0003150CA5FDE4F3883C650D140CA5FDE4F98
:105A00008881C650D140882321F61AAE19AE10C045
:105A100029AD3AADCE01895A9F4FFC01E20FF31F29
:105A200080810E948B2489AD9AAD01969AAF89AF8F
:105A300089AD9AAD853091055CF30C94F838CE01B0
:105A4000845A9F4FC95FDE4F99838883C750D140E6
:105A5000E8E5F1E0C75FDE4FF983E883C950D14044
:105A6000F5E0C55FDE4FF883CB50D140C75FDE4F16
:105A7000E881F981C950D1400080C75FDE4F28819D
:105A80003981C950D1402F5F3F4FC75FDE4F398307
:105A90002883C950D140C95FDE4FE881F981C750E2
:105AA000D1400082C95FDE4F28813981C750D14083
:105AB0002F5F3F4FC95FDE4F39832883C750D140E6
:105AC000C55FDE4F3881CB50D1403150C55FDE4FCE
:105AD0003883CB50D140C55FDE4F8881CB50D14059
